:02000000702D61
:10000800FF00030E8301A7000A08A6008A018B1CC3
:1000180011288B10A00A0319A10A26088A00270EA6
:080028008300FF0E7F0E0900AA
:10003000710DF80DF90D7408F8027508031C750FA1
:10004000F902F00DF10D0F30FC00710DF80DF90DF6
:100050007408701C3128F8027508031C750FF9022A
:100060003628F80775080318750FF907F00DF10D1C
:10007000FC0B2528701842287408F8077508031827
:08008000750FF90700000800EC
:1000880028290030831203133D06031D4D28003034
:100098003C06031D5E283A08F1000130F0007108A3
:1000A80003195A28F00D7010FF3E5428F009700803
:1000B8008505732800303D06031D642801303C0681
:1000C800031D73283A08F1000130F0007108031984
:1000D8007128F00D7010FF3E6B28700885045229B6
:1000E80000303D06031D7A2800303C06031D8B288E
:1000F8003A08F1000130F000710803198728F00D63
:100108007010FF3E8128F00970088605A02800308D
:100118003D06031D912801303C06031DA0283A081E
:10012800F1000130F000710803199E28F00D7010DD
:10013800FF3E982870088604522900303D06031DAA
:10014800A72800303C06031DB8283A08F100013002
:10015800F00071080319B428F00D7010FF3EAE28A6
:10016800F00970088705CD2800303D06031DBE281C
:1001780001303C06031DCD283A08F1000130F0009B
:1001880071080319CB28F00D7010FF3EC5287008C0
:100198008704522900303D06031DD42800303C0650
:1001A800031DE5283A08F1000130F0007108031931
:1001B800E128F00D7010FF3EDB28F0097008880573
:1001C800FA2800303D06031DEB2801303C06031DCC
:1001D800FA283A08F1000130F00071080319F828EC
:1001E800F00D7010FF3EF228700888045229003084
:1001F8003D06031D012900303C06031D12293A085B
:10020800F1000130F000710803190E29F00D70108B
:10021800FF3E0829F00970088905272900303D06A6
:10022800031D182901303C06031D27293A08F1004F
:100238000130F000710803192529F00D7010FF3EF8
:100248001F297008890452298312031300303906C4
:10025800031D3029003038060319452800303906B7
:10026800031D38290130380603197428003039066F
:10027800031D4029023038060319A1280030390629
:10028800031D4829033038060319CE2800303906E3
:0E029800031D5029043038060319FB28080006
:1002A600831203137408003A031D62297508003A85
:1002B600031D6229FF30F0007F30F100BB29831255
:1002C6000313FD01F901F8017108700403190034E4
:1002D60071087506FA00FA1BFD09FB01F51F78295E
:1002E600F409F509F40A0319F50AF11F7F29F00943
:1002F600F109F00A0319F10A71087504FA00FA1BEC
:10030600942918207B18A729FD1F0034F009F1094C
:10031600F00A0319F10AF809F909F80A0319F90AA2
:100326000034F51FA329F11B9F297108F9007008F5
:10033600F800F101F0018729F101F001F00A00341B
:10034600F109F009FB0A8429F80A0319F90A740865
:100356007802031D872975087902031D8729F9018B
:10036600F801F00A0319F10AF11F87290000FF348A
:0203760008007D
:0E0378008312031323088A0022088200080063
:100386000A3083120313F4000030F5002E08F00043
:100396002F08F10053217808F0007908F100700861
:1003A600B6007108B7003608B2003708B3000A3045
:1003B600F4000030F5002E08F0002F08F10053215C
:1003C6007008B4007108B5003008B8003108B900EB
:1003D600BA01BB0101303605BC003708BD0000304C
:1003E600BD0544203008B8003108B9000130BA0014
:1003F6000030BB0002303205BC003308BD000030BF
:10040600BD05BD0CBC0CBD133D1BBD1744203008FB
:10041600B8003108B9000230BA000030BB00043021
:100426003205BC003308BD000030BD05BD0CBC0C58
:10043600BD133D1BBD17BD0CBC0CBD133D1BBD172D
:1004460044203008B8003108B9000330BA00003043
:10045600BB0008303205BC003308BD000030BD05C6
:100466000330F000700803193F2ABD0CBC0CBD1305
:100476003D1BBD17FF3E362A44203008B800310820
:10048600B9000430BA000030BB0001303405BC00AE
:100496003508BD000030BD0544203008B8003108DD
:1004A600B9000530BA000030BB0002303405BC008C
:1004B6003508BD000030BD05BD0CBC0CBD133D1B91
:1004C600BD1744203008B8003108B9000630BA001C
:1004D6000030BB0004303405BC003508BD000030D8
:1004E600BD05BD0CBC0CBD133D1BBD17BD0CBC0C26
:1004F600BD133D1BBD1744203008B8003108B900B4
:100506000730BA000030BB0008303405BC0035089F
:10051600BD000030BD050330F000700803199A2AAB
:10052600BD0CBC0CBD133D1BBD17FF3E912A4420DC
:020536000800BB
:100538000630831603139F00870188018501033065
:1005480086008B170B1601178312861506150616DB
:100558008616870188010510061305118510851177
:0405680086130800EE
:10056C00831203138618A92CAC01AD0105140511D7
:10057C008510851186170613A801A9018030F0009B
:10058C00803029067002031DCD2A2808263C031C46
:10059C00A82C861CA82BAE01AF010230B000003095
:1005AC00B100C321AE01AF010330B0000030B10087
:1005BC00C32100302106031DE52A00302006031D4F
:1005CC00F92A8030F000803025067002031DF02AD5
:1005DC002408013C0318F92A05100613051185108F
:1005EC0085118613A42B00302106031DFF2A013030
:1005FC002006031D4E2B0514051185108511AA012B
:10060C00AB0180302B06F00080307002031D102BE4
:10061C0004302A0203182F2B061386172A08AE0063
:10062C002B08AF000330B0000030B100C3210B30F9
:10063C00FB002630FC005D30FD00FD0B232BFC0B7A
:10064C00232BFB0B232B00000000AA0A0319AB0A77
:10065C00072B06178613AE01AF010230B000003035
:10066C00B100C321AE01AF010330B0000030B100C6
:10067C00C321861C4D2B00302106031D472B013056
:10068C002006031D4D2B061C4C2B492B3F2BA42B5A
:10069C0000302106031D542B02302006031DA42B11
:1006AC00A001A1010510061385158613AA01AB0143
:1006BC0080302B06F00080307002031D672B043055
:1006CC002A020318862B051185142A08AE002B0864
:1006DC00AF000230B0000030B100C3210B30FB0082
:1006EC002630FC005D30FD00FD0B7A2BFC0B7A2BC9
:1006FC00FB0B7A2B00000000AA0A0319AB0A5E2B35
:10070C0085100515AE01AF010230B0000030B1000C
:10071C00C321AE01AF010330B0000030B100C321E2
:10072C00861CA42B00302106031D9E2B00302006B6
:10073C00031DA42B061CA32BA02B962BAC0A031970
:10074C00AD0AA92BAA2BCF2AA40A0319A50A80301B
:10075C002D06F00080307002031DB62B01302C02E8
:10076C00031CB92BA82C8030F000803029067002B5
:10077C00031DC22B2808123C031C6D2CA001A101E7
:10078C008030F000803029067002031DCF2B280822
:10079C00033C0318052C8030F000803029067002D1
:1007AC00031DDA2B28080F3C031C052CA001A1010A
:1007BC000617861303302802AE000030031C013EDE
:1007CC002902AF000330B0000030B100C32128086B
:1007DC00AE002908AF000230B0000030B100C321D8
:1007EC000B30FB002630FC005D30FD00FD0BFC2BBC
:1007FC00FC0BFC2BFB0BFC2B000000006C2C80304A
:10080C00F000803029067002031D0E2C28080F3CC6
:10081C0003183F2CA001A1010510851406138515A2
:10082C000F302802AE000030031C013E2902AF003D
:10083C000230B0000030B100C3210F302802AE00EE
:10084C000030031C013E2902AF000330B000003021
:10085C00B100C3210B30FB002630FC005D30FD00E5
:10086C00FD0B362CFC0B362CFB0B362C0000000041
:10087C006C2C8030F000803029067002031D482C4F
:10088C002808033C031C6C2CA001A1012808AE0015
:10089C002908AF000330B0000030B100C321280894
:1008AC00AE002908AF000230B0000030B100C32107
:1008BC000B30FB002630FC005D30FD00FD0B642C82
:1008CC00FC0B642CFB0B642C00000000A42C80306F
:1008DC00F000803029067002031D762C2808123C8B
:1008EC000318A42CA001A1018510051512302802B3
:1008FC00AE000030031C013E2902AF000230B000F4
:10090C000030B100C3210F302802AE000030031CB0
:10091C00013E2902AF000330B0000030B100C3210A
:10092C000B30FB002630FC005D30FD00FD0B9C2CD9
:10093C00FC0B9C2CFB0B9C2C00000000A80A031940
:10094C00A90AC42A622DAE01AF010230B0000030FA
:10095C00B100C321AE01AF010330B0000030B100D3
:10096C00C32100302106031DBD2C01302006031DC0
:10097C000C2D0514051185108511AA01AB018030D1
:10098C002B06F00080307002031DCE2C04302A029E
:10099C000318ED2C061386172A08AE002B08AF009F
:1009AC000330B0000030B100C3210B30FB00263007
:1009BC00FC005D30FD00FD0BE12CFC0BE12CFB0B76
:1009CC00E12C00000000AA0A0319AB0AC52C06177B
:1009DC008613AE01AF010230B0000030B100C3216C
:1009EC00AE01AF010330B0000030B100C321861C52
:1009FC000B2D00302106031D052D01302006031D93
:100A0C000B2D061C0A2D072DFD2C622D0030210606
:100A1C00031D122D02302006031D622DA001A10121
:100A2C000510061385158613AA01AB0180302B0621
:100A3C00F00080307002031D252D04302A020318AB
:100A4C00442D051185142A08AE002B08AF00023086
:100A5C00B0000030B100C3210B30FB002630FC008D
:100A6C005D30FD00FD0B382DFC0B382DFB0B382DAC
:100A7C0000000000AA0A0319AB0A1C2D85100515ED
:100A8C00AE01AF010230B0000030B100C321AE01A5
:100A9C00AF010330B0000030B100C321861C622DC1
:100AAC0000302106031D5C2D00302006031D622D35
:0C0ABC00061C612D5E2D542DB62A08008A
:100AC800BC218A110A128000840AA20A0319A30A07
:080AD800F003031D642D08006A
:0E0AE00083120313A001A1019C22B622762DE1
:02400E004A2F37
:00000001FF
